{
  "contractName": "CredentialOrgFactoryB",
  "abi": [
    {
      "constant": false,
      "inputs": [],
      "name": "unpause",
      "outputs": [],
      "payable": false,
      "stateMutability": "nonpayable",
      "type": "function"
    },
    {
      "constant": true,
      "inputs": [],
      "name": "paused",
      "outputs": [
        {
          "name": "",
          "type": "bool"
        }
      ],
      "payable": false,
      "stateMutability": "view",
      "type": "function"
    },
    {
      "constant": false,
      "inputs": [],
      "name": "pause",
      "outputs": [],
      "payable": false,
      "stateMutability": "nonpayable",
      "type": "function"
    },
    {
      "constant": true,
      "inputs": [],
      "name": "owner",
      "outputs": [
        {
          "name": "",
          "type": "address"
        }
      ],
      "payable": false,
      "stateMutability": "view",
      "type": "function"
    },
    {
      "constant": false,
      "inputs": [
        {
          "name": "newOwner",
          "type": "address"
        }
      ],
      "name": "transferOwnership",
      "outputs": [],
      "payable": false,
      "stateMutability": "nonpayable",
      "type": "function"
    },
    {
      "inputs": [],
      "payable": false,
      "stateMutability": "nonpayable",
      "type": "constructor"
    },
    {
      "anonymous": false,
      "inputs": [
        {
          "indexed": true,
          "name": "schoolAddress",
          "type": "address"
        },
        {
          "indexed": false,
          "name": "detail",
          "type": "string"
        }
      ],
      "name": "CredentialOrgEvent",
      "type": "event"
    },
    {
      "anonymous": false,
      "inputs": [],
      "name": "Pause",
      "type": "event"
    },
    {
      "anonymous": false,
      "inputs": [],
      "name": "Unpause",
      "type": "event"
    },
    {
      "anonymous": false,
      "inputs": [
        {
          "indexed": true,
          "name": "previousOwner",
          "type": "address"
        },
        {
          "indexed": true,
          "name": "newOwner",
          "type": "address"
        }
      ],
      "name": "OwnershipTransferred",
      "type": "event"
    },
    {
      "constant": true,
      "inputs": [],
      "name": "getOwner",
      "outputs": [
        {
          "name": "returnedOwner",
          "type": "address"
        }
      ],
      "payable": false,
      "stateMutability": "view",
      "type": "function"
    },
    {
      "constant": false,
      "inputs": [
        {
          "name": "_shortName",
          "type": "string"
        },
        {
          "name": "_officialSchoolName",
          "type": "string"
        },
        {
          "name": "_schoolAddress",
          "type": "address"
        }
      ],
      "name": "createCredentialOrg",
      "outputs": [
        {
          "name": "createStatus",
          "type": "bool"
        }
      ],
      "payable": false,
      "stateMutability": "nonpayable",
      "type": "function"
    },
    {
      "constant": true,
      "inputs": [
        {
          "name": "_credentialOrgPosition",
          "type": "uint32"
        }
      ],
      "name": "selectCredentialOrgByPosition",
      "outputs": [
        {
          "name": "shortName",
          "type": "string"
        },
        {
          "name": "officialSchoolName",
          "type": "string"
        },
        {
          "name": "schoolAddress",
          "type": "address"
        }
      ],
      "payable": false,
      "stateMutability": "view",
      "type": "function"
    },
    {
      "constant": true,
      "inputs": [
        {
          "name": "_credentialOrgAddress",
          "type": "address"
        }
      ],
      "name": "selectCredentialOrgByAddress",
      "outputs": [
        {
          "name": "shortName",
          "type": "string"
        },
        {
          "name": "officialSchoolName",
          "type": "string"
        },
        {
          "name": "schoolAddress",
          "type": "address"
        }
      ],
      "payable": false,
      "stateMutability": "view",
      "type": "function"
    },
    {
      "constant": true,
      "inputs": [
        {
          "name": "_credentialOrgAddress",
          "type": "address"
        }
      ],
      "name": "isCredentialOrg",
      "outputs": [
        {
          "name": "isOrgAddress",
          "type": "bool"
        }
      ],
      "payable": false,
      "stateMutability": "view",
      "type": "function"
    },
    {
      "constant": true,
      "inputs": [],
      "name": "selectOrgCount",
      "outputs": [
        {
          "name": "returnOrgCount",
          "type": "uint32"
        }
      ],
      "payable": false,
      "stateMutability": "view",
      "type": "function"
    }
  ],
  "bytecode": "0x608060405260008060146101000a81548160ff02191690831515021790555034801561002a57600080fd5b50336000806101000a81548173ffffffffffffffffffffffffffffffffffffffff021916908373ffffffffffffffffffffffffffffffffffffffff1602179055506000600260006101000a81548163ffffffff021916908363ffffffff1602179055506119878061009c6000396000f3006080604052600436106100af576000357c0100000000000000000000000000000000000000000000000000000000900463ffffffff1680633f4ba83a146100b4578063554ee043146100cb5780635c975abb14610102578063722d6fb3146101315780637795e209146102185780638456cb5914610363578063893d20e81461037a5780638da5cb5b146103d1578063bbee2dfe14610428578063e1eaee4214610583578063f2fde38b146105de575b600080fd5b3480156100c057600080fd5b506100c9610621565b005b3480156100d757600080fd5b506100e06106df565b604051808263ffffffff1663ffffffff16815260200191505060405180910390f35b34801561010e57600080fd5b506101176106fc565b604051808215151515815260200191505060405180910390f35b34801561013d57600080fd5b506101fe600480360381019080803590602001908201803590602001908080601f0160208091040260200160405190810160405280939291908181526020018383808284378201915050505050509192919290803590602001908201803590602001908080601f0160208091040260200160405190810160405280939291908181526020018383808284378201915050505050509192919290803573ffffffffffffffffffffffffffffffffffffffff16906020019092919050505061070f565b604051808215151515815260200191505060405180910390f35b34801561022457600080fd5b50610249600480360381019080803563ffffffff169060200190929190505050610e33565b6040518080602001806020018473ffffffffffffffffffffffffffffffffffffffff1673ffffffffffffffffffffffffffffffffffffffff168152602001838103835286818151815260200191508051906020019080838360005b838110156102bf5780820151818401526020810190506102a4565b50505050905090810190601f1680156102ec5780820380516001836020036101000a031916815260200191505b50838103825285818151815260200191508051906020019080838360005b8381101561032557808201518184015260208101905061030a565b50505050905090810190601f1680156103525780820380516001836020036101000a031916815260200191505b509550505050505060405180910390f35b34801561036f57600080fd5b50610378611085565b005b34801561038657600080fd5b5061038f611145565b604051808273ffffffffffffffffffffffffffffffffffffffff1673ffffffffffffffffffffffffffffffffffffffff16815260200191505060405180910390f35b3480156103dd57600080fd5b506103e6611171565b604051808273ffffffffffffffffffffffffffffffffffffffff1673ffffffffffffffffffffffffffffffffffffffff16815260200191505060405180910390f35b34801561043457600080fd5b50610469600480360381019080803573ffffffffffffffffffffffffffffffffffffffff169060200190929190505050611196565b6040518080602001806020018473ffffffffffffffffffffffffffffffffffffffff1673ffffffffffffffffffffffffffffffffffffffff168152602001838103835286818151815260200191508051906020019080838360005b838110156104df5780820151818401526020810190506104c4565b50505050905090810190601f16801561050c5780820380516001836020036101000a031916815260200191505b50838103825285818151815260200191508051906020019080838360005b8381101561054557808201518184015260208101905061052a565b50505050905090810190601f1680156105725780820380516001836020036101000a031916815260200191505b509550505050505060405180910390f35b34801561058f57600080fd5b506105c4600480360381019080803573ffffffffffffffffffffffffffffffffffffffff16906020019092919050505061142c565b604051808215151515815260200191505060405180910390f35b3480156105ea57600080fd5b5061061f600480360381019080803573ffffffffffffffffffffffffffffffffffffffff169060200190929190505050611653565b005b6000809054906101000a900473ffffffffffffffffffffffffffffffffffffffff1673ffffffffffffffffffffffffffffffffffffffff163373ffffffffffffffffffffffffffffffffffffffff1614151561067c57600080fd5b600060149054906101000a900460ff16151561069757600080fd5b60008060146101000a81548160ff0219169083151502179055507f7805862f689e2f13df9f062ff482ad3ad112aca9e0847911ed832e158c525b3360405160405180910390a1565b6000600260009054906101000a900463ffffffff16905080905090565b600060149054906101000a900460ff1681565b60006107196117f7565b60008060009054906101000a900473ffffffffffffffffffffffffffffffffffffffff1673ffffffffffffffffffffffffffffffffffffffff163373ffffffffffffffffffffffffffffffffffffffff1614151561077657600080fd5b600060149054906101000a900460ff1615151561079257600080fd5b600086511180156107a45750601f8651105b15156107af57600080fd5b600085511180156107c1575060468551105b15156107cc57600080fd5b60008473ffffffffffffffffffffffffffffffffffffffff16141515156107f257600080fd5b60009250600160008573ffffffffffffffffffffffffffffffffffffffff1673ffffffffffffffffffffffffffffffffffffffff16815260200190815260200160002060606040519081016040529081600082018054600181600116156101000203166002900480601f0160208091040260200160405190810160405280929190818152602001828054600181600116156101000203166002900480156108da5780601f106108af576101008083540402835291602001916108da565b820191906000526020600020905b8154815290600101906020018083116108bd57829003601f168201915b50505050508152602001600182018054600181600116156101000203166002900480601f01602080910402602001604051908101604052809291908181526020018280546001816001161561010002031660029004801561097c5780601f106109515761010080835404028352916020019161097c565b820191906000526020600020905b81548152906001019060200180831161095f57829003601f168201915b505050505081526020016002820160009054906101000a900473ffffffffffffffffffffffffffffffffffffffff1673ffffffffffffffffffffffffffffffffffffffff1673ffffffffffffffffffffffffffffffffffffffff168152505091506000826040015173ffffffffffffffffffffffffffffffffffffffff161415610d815760036060604051908101604052808881526020018781526020018673ffffffffffffffffffffffffffffffffffffffff16815250908060018154018082558091505090600182039060005260206000209060030201600090919290919091506000820151816000019080519060200190610a7b92919061182f565b506020820151816001019080519060200190610a9892919061182f565b5060408201518160020160006101000a81548173ffffffffffffffffffffffffffffffffffffffff021916908373ffffffffffffffffffffffffffffffffffffffff1602179055505050905060008163ffffffff161115610cfc576003610b0f60018363ffffffff166117a890919063ffffffff16565b63ffffffff16815481101515610b2157fe5b9060005260206000209060030201600160008673ffffffffffffffffffffffffffffffffffffffff1673ffffffffffffffffffffffffffffffffffffffff16815260200190815260200160002060008201816000019080546001816001161561010002031660029004610b959291906118af565b5060018201816001019080546001816001161561010002031660029004610bbd9291906118af565b506002820160009054906101000a900473ffffffffffffffffffffffffffffffffffffffff168160020160006101000a81548173ffffffffffffffffffffffffffffffffffffffff021916908373ffffffffffffffffffffffffffffffffffffffff160217905550905050610c546001600260009054906101000a900463ffffffff1663ffffffff166117cd90919063ffffffff16565b600260006101000a81548163ffffffff021916908363ffffffff160217905550600192508373ffffffffffffffffffffffffffffffffffffffff167f4e21dd52bcce287e8c74281919f77b5fe01a9761789a160d0bc2d8116703142f60405180806020018281038252601d8152602001807f63726561746543726564656e7469616c4f72672028535543434553532900000081525060200191505060405180910390a2610d7c565b8373ffffffffffffffffffffffffffffffffffffffff167f4e21dd52bcce287e8c74281919f77b5fe01a9761789a160d0bc2d8116703142f60405180806020018281038252601a8152602001807f63726561746543726564656e7469616c4f726720284641494c2900000000000081525060200191505060405180910390a25b610e27565b8373ffffffffffffffffffffffffffffffffffffffff167f4e21dd52bcce287e8c74281919f77b5fe01a9761789a160d0bc2d8116703142f60405180806020018281038252602d8152602001807f63726561746543726564656e7469616c4f726720284641494c29206f7267204181526020017f6c7265616479206578697374730000000000000000000000000000000000000081525060400191505060405180910390a25b82925050509392505050565b606080600060206040519081016040528060008152509250602060405190810160405280600081525091506000905060008463ffffffff1610151515610e7857600080fd5b600260009054906101000a900463ffffffff1663ffffffff168463ffffffff1610156110745760038463ffffffff16815481101515610eb357fe5b906000526020600020906003020160000160038563ffffffff16815481101515610ed957fe5b906000526020600020906003020160010160038663ffffffff16815481101515610eff57fe5b906000526020600020906003020160020160009054906101000a900473ffffffffffffffffffffffffffffffffffffffff16828054600181600116156101000203166002900480601f016020809104026020016040519081016040528092919081815260200182805460018160011615610100020316600290048015610fc65780601f10610f9b57610100808354040283529160200191610fc6565b820191906000526020600020905b815481529060010190602001808311610fa957829003601f168201915b50505050509250818054600181600116156101000203166002900480601f0160208091040260200160405190810160405280929190818152602001828054600181600116156101000203166002900480156110625780601f1061103757610100808354040283529160200191611062565b820191906000526020600020905b81548152906001019060200180831161104557829003601f168201915b5050505050915092509250925061107e565b8282829250925092505b9193909250565b6000809054906101000a900473ffffffffffffffffffffffffffffffffffffffff1673ffffffffffffffffffffffffffffffffffffffff163373ffffffffffffffffffffffffffffffffffffffff161415156110e057600080fd5b600060149054906101000a900460ff161515156110fc57600080fd5b6001600060146101000a81548160ff0219169083151502179055507f6985a02210a168e66602d3235cb6db0e70f92b3ba4d376a33c0f3d9434bff62560405160405180910390a1565b60008060009054906101000a900473ffffffffffffffffffffffffffffffffffffffff16905080905090565b6000809054906101000a900473ffffffffffffffffffffffffffffffffffffffff1681565b60608060006111a36117f7565b60008573ffffffffffffffffffffffffffffffffffffffff16141515156111c957600080fd5b600160008673ffffffffffffffffffffffffffffffffffffffff1673ffffffffffffffffffffffffffffffffffffffff16815260200190815260200160002060606040519081016040529081600082018054600181600116156101000203166002900480601f0160208091040260200160405190810160405280929190818152602001828054600181600116156101000203166002900480156112ad5780601f10611282576101008083540402835291602001916112ad565b820191906000526020600020905b81548152906001019060200180831161129057829003601f168201915b50505050508152602001600182018054600181600116156101000203166002900480601f01602080910402602001604051908101604052809291908181526020018280546001816001161561010002031660029004801561134f5780601f106113245761010080835404028352916020019161134f565b820191906000526020600020905b81548152906001019060200180831161133257829003601f168201915b505050505081526020016002820160009054906101000a900473ffffffffffffffffffffffffffffffffffffffff1673ffffffffffffffffffffffffffffffffffffffff1673ffffffffffffffffffffffffffffffffffffffff168152505090506000816040015173ffffffffffffffffffffffffffffffffffffffff161415156113f457806000015181602001518260400151829250819150935093509350611424565b60006020604051908101604052806000815250906020604051908101604052806000815250908090509350935093505b509193909250565b60006114366117f7565b60009150600160008473ffffffffffffffffffffffffffffffffffffffff1673ffffffffffffffffffffffffffffffffffffffff16815260200190815260200160002060606040519081016040529081600082018054600181600116156101000203166002900480601f01602080910402602001604051908101604052809291908181526020018280546001816001161561010002031660029004801561151e5780601f106114f35761010080835404028352916020019161151e565b820191906000526020600020905b81548152906001019060200180831161150157829003601f168201915b50505050508152602001600182018054600181600116156101000203166002900480601f0160208091040260200160405190810160405280929190818152602001828054600181600116156101000203166002900480156115c05780601f10611595576101008083540402835291602001916115c0565b820191906000526020600020905b8154815290600101906020018083116115a357829003601f168201915b505050505081526020016002820160009054906101000a900473ffffffffffffffffffffffffffffffffffffffff1673ffffffffffffffffffffffffffffffffffffffff1673ffffffffffffffffffffffffffffffffffffffff168152505090506000816040015173ffffffffffffffffffffffffffffffffffffffff1614151561164a57600191505b81915050919050565b6000809054906101000a900473ffffffffffffffffffffffffffffffffffffffff1673ffffffffffffffffffffffffffffffffffffffff163373ffffffffffffffffffffffffffffffffffffffff161415156116ae57600080fd5b600073ffffffffffffffffffffffffffffffffffffffff168173ffffffffffffffffffffffffffffffffffffffff16141515156116ea57600080fd5b8073ffffffffffffffffffffffffffffffffffffffff166000809054906101000a900473ffffffffffffffffffffffffffffffffffffffff1673ffffffffffffffffffffffffffffffffffffffff167f8be0079c531659141344cd1fd0a4f28419497f9722a3daafe3b4186f6b6457e060405160405180910390a3806000806101000a81548173ffffffffffffffffffffffffffffffffffffffff021916908373ffffffffffffffffffffffffffffffffffffffff16021790555050565b60008263ffffffff168263ffffffff16111515156117c257fe5b818303905092915050565b60008082840190508363ffffffff168163ffffffff16101515156117ed57fe5b8091505092915050565b6060604051908101604052806060815260200160608152602001600073ffffffffffffffffffffffffffffffffffffffff1681525090565b828054600181600116156101000203166002900490600052602060002090601f016020900481019282601f1061187057805160ff191683800117855561189e565b8280016001018555821561189e579182015b8281111561189d578251825591602001919060010190611882565b5b5090506118ab9190611936565b5090565b828054600181600116156101000203166002900490600052602060002090601f016020900481019282601f106118e85780548555611925565b8280016001018555821561192557600052602060002091601f016020900482015b82811115611924578254825591600101919060010190611909565b5b5090506119329190611936565b5090565b61195891905b8082111561195457600081600090555060010161193c565b5090565b905600a165627a7a723058208186c66a514a43b0c9d519cd57ddd1f32d5a7383ed4cf018234edc681640bf860029",
  "source": "pragma solidity ^0.4.21;\r\n\r\n/** @title CredentialOrgFactoryB  */\r\nimport \"./Pausable.sol\";\r\nimport \"./SafeMath32.sol\";\r\n\r\ncontract CredentialOrgFactoryB is Pausable {\r\n    // SafeMath32 library usage.\r\n    using SafeMath32 for uint32;\r\n\r\n    // mappings\r\n    mapping(address => CredentialOrg) addressToCredentialOrg;\r\n    \r\n    // events \r\n    event CredentialOrgEvent(address indexed schoolAddress, string detail);\r\n\r\n    // # of credentialling orgs created.\r\n    uint32 private credentialOrgCount;\r\n\r\n    // Primary CredentialOrg structure, and following array.\r\n    struct CredentialOrg {\r\n        string shortName;          // School shortName (len 30)\r\n        string officialSchoolName; // official school shortName (70 or less)\r\n        address schoolAddress;\r\n    }\r\n    // CredentialOrg Array    \r\n    CredentialOrg[] private credentialOrgs; \r\n\r\n    /**\r\n    * @dev class constructor\r\n    */\r\n    constructor() public {\r\n        credentialOrgCount = 0;\r\n    }\r\n    \r\n    // functions\r\n    /**\r\n    * @dev gets owners address\r\n    * @return returns contractOwners Address\r\n    */\r\n    function getOwner()\r\n    public view\r\n    returns (address returnedOwner)\r\n    {\r\n        returnedOwner = owner;\r\n        return(returnedOwner);\r\n    }\r\n    /**\r\n    * @dev allows owner to create new credentialing orgs\r\n    * @param _shortName shortName of Credentialing orgs\r\n    * @param _officialSchoolName official School Name\r\n    * @param _schoolAddress address of credential org.\r\n    * @return createStatus bool noting creation status success or failure\r\n    */\r\n    function createCredentialOrg(string _shortName, string _officialSchoolName, address _schoolAddress) \r\n    public onlyOwner whenNotPaused\r\n    returns (bool createStatus)\r\n    {\r\n        //emit CredentialOrgEvent(_schoolAddress, \"createCredentialOrg (PRE)\");\r\n        require(bytes(_shortName).length > 0 && bytes(_shortName).length < 31);\r\n        require(bytes(_officialSchoolName).length > 0 && bytes(_officialSchoolName).length < 70);\r\n        require(_schoolAddress != 0);        \r\n        createStatus = false;\r\n\r\n        CredentialOrg memory orgExists = addressToCredentialOrg[_schoolAddress];\r\n        if (orgExists.schoolAddress == 0){\r\n            uint32 position = uint32(credentialOrgs.push(CredentialOrg(_shortName, _officialSchoolName, _schoolAddress)));\r\n            if (position > 0){\r\n                addressToCredentialOrg[_schoolAddress] = credentialOrgs[position.sub(1)];\r\n                credentialOrgCount = credentialOrgCount.add(1);\r\n                createStatus = true;\r\n                emit CredentialOrgEvent(_schoolAddress, \"createCredentialOrg (SUCCESS)\");\r\n            } else {\r\n                emit CredentialOrgEvent(_schoolAddress, \"createCredentialOrg (FAIL)\");\r\n            }\r\n        } else {\r\n            emit CredentialOrgEvent(_schoolAddress, \"createCredentialOrg (FAIL) org Already exists\");\r\n        }\r\n        return (createStatus);\r\n    }\r\n\r\n    /**\r\n    * @dev allows selection of a credentialingOrg by position\r\n    * @param _credentialOrgPosition allows selection of credentialing orgs details.\r\n    * @return shortName - shortName of Credential Org\r\n    * @return officialSchooName - official school name\r\n    * @return school -the schools ethereum address \r\n    */\r\n    function selectCredentialOrgByPosition(uint32 _credentialOrgPosition) \r\n    public view \r\n    returns (string shortName, string officialSchoolName, address schoolAddress)\r\n    {\r\n        shortName = \"\";\r\n        officialSchoolName = \"\";\r\n        schoolAddress = 0;\r\n        require(_credentialOrgPosition >= 0);\r\n        if (_credentialOrgPosition < credentialOrgCount){\r\n            return (credentialOrgs[_credentialOrgPosition].shortName, credentialOrgs[_credentialOrgPosition].officialSchoolName, credentialOrgs[_credentialOrgPosition].schoolAddress);\r\n        } else {\r\n            return (shortName, officialSchoolName, schoolAddress);\r\n        }\r\n    }\r\n\r\n    /**\r\n    * @dev allows selection of a credentialingOrg by address\r\n    * @param _credentialOrgAddress allows selection of credentialing orgs details.\r\n    * @return shortName - shortName of Credential Org\r\n    * @return officialSchooName - official school name\r\n    * @return school -the schools ethereum address \r\n    */\r\n    function selectCredentialOrgByAddress(address _credentialOrgAddress) \r\n    public view \r\n    returns (string shortName, string officialSchoolName, address schoolAddress)\r\n    {\r\n        //emit CredentialOrgEvent(_credentialOrgAddress, \"selectCredentialOrg (PRE)\");\r\n        require(_credentialOrgAddress != 0);\r\n        CredentialOrg memory testCred = addressToCredentialOrg[_credentialOrgAddress];\r\n        if (testCred.schoolAddress != 0){\r\n            return (testCred.shortName, testCred.officialSchoolName, testCred.schoolAddress);\r\n        } else {\r\n            return (\"\", \"\", 0);\r\n        }\r\n    }\r\n\r\n    /**\r\n    * @dev allows checking if credentialOrg exists\r\n    * @param _credentialOrgAddress function returns bool if an address is a credentialingOrg\r\n    * @return isAddress returns true if address is Credentialing Org, false if not.\r\n    */\r\n    function isCredentialOrg(address _credentialOrgAddress) \r\n    public view\r\n    returns (bool isOrgAddress)\r\n    {\r\n        isOrgAddress = false;\r\n        CredentialOrg memory testCredentialOrg = addressToCredentialOrg[_credentialOrgAddress];\r\n        if (testCredentialOrg.schoolAddress != 0)\r\n            isOrgAddress = true;\r\n        return (isOrgAddress);\r\n    }\r\n\r\n    /**\r\n    * @dev returns the credentialOrgCount\r\n    * @return returnOrgCount - returns the total credential orgs count\r\n    */\r\n    function selectOrgCount()\r\n    public view\r\n    returns (uint32 returnOrgCount)\r\n    {\r\n        returnOrgCount = credentialOrgCount;\r\n        return (returnOrgCount);\r\n    }\r\n}",
  "sourcePath": "D:\\Projects\\MessageTest\\contracts\\CredentialOrgFactoryB.sol",
  "compiler": {
    "name": "solc",
    "version": "0.4.24+commit.e67f0147.Emscripten.clang"
  },
  "schemaVersion": "2.0.1",
  "updatedAt": "2018-09-28T15:01:11.170Z"
}